:020000040000FA
:100000000208007597A5E4F51AF519F518F517E437
:100010007FCCFEFDFCAB1AAA19A918A817C31200C1
:10002000C7501800E51A2401F51AE43519F519E44A
:100030003518F518E43517F51780D4A2AF9200C231
:10004000AF7597DE7597ADA20092AF226307FFD21E
:1000500083E4F508E508C3940874809480501AC3BB
:1000600074079508FEF8EF088002C313D8FC1392BA
:1000700082D280C280050880DBC283D283C2832201
:100080001200D8E516540FFFE48F1AFBFDFF120093
:10009000E7E51654F0FFE48F1A0BFF1200E7E4F5D2
:1000A0001A1B0DFF1200E7E4F51A0BFF1200E780A0
:1000B000D20108000A093F065B4F666D7D077F6F1E
:1000C00004133F065B4F00EB9FF5F0EA9E42F0E918
:1000D0009D42F0E89C45F022120003120109120132
:1000E0000D1201110201021200F5AF1A12004C307C
:1000F0008DFDC28D22EF139291ED139292EB13922C
:1001000084227589024388102275A41D2275A506D4
:060110002275E3402222EB
:10080000120115787FE4F6D8FD75812002084A02AE
:100810000080E493A3F8E493A34003F68001F20878
:10082000DFF48029E493A3F85407240CC8C333C42D
:10083000540F4420C8834004F456800146F6DFE498
:10084000800B01020408102040809000B1E47E017A
:100850009360BCA3FF543F30E509541FFEE493A30B
:1008600060010ECF54C025E060A840B8E493A3FA1D
:10087000E493A3F8E493A3C8C582C8CAC583CAF0A9
:0F088000A3C8C582C8CAC583CADFE9DEE780BE48
:00000001FF
