:020000040000FA
:10000000020003120240787FE4F6D8FD75812002D9
:10001000004D0201B7E493A3F8E493A34003F680F4
:1000200001F208DFF48029E493A3F85407240CC8F4
:10003000C333C4540F4420C8834004F4568001469F
:10004000F6DFE4800B01020408102040809001D00C
:10005000E47E019360BCA3FF543F30E509541FFECA
:10006000E493A360010ECF54C025E060A840B8E43B
:1000700093A3FAE493A3F8E493A3C8C582C8CAC5BE
:1000800083CAF0A3C8C582C8CAC583CADFE9DEE750
:1000900080BEBC000BBE0029EF8DF084FFADF022C6
:1000A000E4CCF875F008EF2FFFEE33FEEC33FCEEF6
:1000B0009DEC984005FCEE9DFE0FD5F0E9E4CEFDE9
:1000C00022EDF8F5F0EE8420D21CFEADF075F008BC
:1000D000EF2FFFED33FD4007985006D5F0F222C315
:1000E00098FD0FD5F0EA22EB9FF5F0EA9E42F0E989
:1000F0009D42F0E89C45F022AB07AA06E4F516AF56
:10010000167E00C3EF9404748094805045C374033A
:100110009FFFE49EEF139291C374039516C31313CC
:100120009292C2847C007D0AAF03AE02120092AFAD
:100130000574082FF8E6FF1201FB30CFFDC2CF7C1B
:10014000007D0AAF03AE02120092AA06AB070516A5
:1001500080AD227597A5E4F51AF519F518F517E4A1
:100160007FCCFEFDFCAB1AAA19A918A817C3120070
:10017000E7501800E51A2401F51AE43519F519E4D9
:100180003518F518E43517F51780D4A2AF9200C2E0
:10019000AF7597DE7597ADA20092AF221201531290
:1001A000023812020912023112021312023C120129
:1001B000E812022702021D12019CC2EDD2EC30EDC2
:1001C000FD85BE1285BD13AF13AE121200F880EA92
:1001D000021404D20116000A083F065B4F666D7DCB
:1001E000077F6F0212000000E5C8540453C8FB7576
:1001F000CBFE75CAEC43C80442C822EFF4F5A33025
:10020000FFFDC2FFD283C2832275A50675F27F75FA
:10021000D5802275BB0F75BCF943E8802243A170DD
:1002200053F8F343F80122E59154045391FB4291B2
:100230002275E34075E1022275A41D2275D10822C2
:01024000229B
:00000001FF
