:020000040000FA
:10000000020003120150787FE4F6D8FD75812002CA
:10001000004D020131E493A3F8E493A34003F6807A
:1000200001F208DFF48029E493A3F85407240CC8F4
:10003000C333C4540F4420C8834004F4568001469F
:10004000F6DFE4800B01020408102040809001409C
:10005000E47E019360BCA3FF543F30E509541FFECA
:10006000E493A360010ECF54C025E060A840B8E43B
:1000700093A3FAE493A3F8E493A3C8C582C8CAC5BE
:1000800083CAF0A3C8C582C8CAC583CADFE9DEE750
:1000900080BE7597A5E4F50BF50AF509F508E47F30
:1000A000CCFEFDFCAB0BAA0AA909A808C3120116D5
:1000B000501800E50B2401F50BE4350AF50AE43588
:1000C00009F509E43508F50880D4A2AF9200C2AF63
:1000D0007597DE7597ADA20092AF221200921201C1
:1000E0004412013912014C12010312012702014886
:1000F00020980585990C80F8E50CB44C03C2942235
:10010000D29422AF885388AF758D96EF5440FEEF9E
:1001100054104E428822EB9FF5F0EA9E42F0E99D92
:1001200042F0E89C45F022758E087589204388408E
:10013000221200DB1200F080FB75E34075E1012222
:10014000010C000075A4102243981022E4F5A922A6
:01015000228C
:00000001FF
