:020000040000FA
:10000000020AF07597A5E4F511F510F50FF50EE469
:100010007FCCFEFDFCAB11AA10A90FA80EC3120ADB
:100020003C501800E5112401F511E43510F510E4F9
:10003000350FF50FE4350EF50E80D4A2AF9200C255
:10004000AF7597DE7597ADA20092AF22AD07AC06F3
:10005000E41209AB7B337A3379537840120800E419
:10006000FBFA79807844120909E4FBFA797A78443A
:10007000020800E4F508F509F50DF50CF50BF50A95
:100080001200971200A68E088F0912004C8F0D8E59
:100090000C8D0B8C0A80EC1200031200BC1200C302
:1000A0001200B20200C7C2EDD2EC30EDFDAFBDAE22
:1000B000BE2275BB0F75BC0143E8802275F27F75C7
:0C00C000D5802275E3402275D108222271
:10080000EC4D6011E8497017ED33EC3304600DE4F2
:10081000FCFFFEFD22E933E8330470F8020A1912E6
:1008200009E458046009E4CC2481500628500902E8
:100830000A23284003020A20C0E0EB4A7044B98032
:1008400006D0E0FB020A0FEF4E701CBD8008EBFFE4
:10085000EAFEE9FD80EBE98DF0A4FEE5F00208E98F
:10086000E9CDF9EAFEEBFFEF89F0A4FCE5F0CE89D3
:10087000F0A42EFFE435F0CD89F0A42DFEE435F090
:100880008067EF4E7005BD80D780C3EF8BF0A4ACBE
:10089000F0EE8BF0A42CFCE435F0F8EF8AF0A42CF9
:1008A000E5F038FCE433CB8DF0A42CFCE5F03BF80C
:1008B000EE8AF0A42CFCE5F038F8E433CF89F0A4FC
:1008C0002CFCE5F038CF3400CE89F0A42FFFE5F002
:1008D0003EFEE433C98DF0A42EFEE5F039CD8AF05A
:1008E000A42FFFE5F03EFEE43DFD33D0E0FB5007D2
:1008F0000BBB000F020A23EC2CFCEF33FFEE33FEA0
:10090000ED33FD0209FB020A23EC5D046005E859A2
:10091000047003020A191209E4580460F6EC4860F6
:10092000F2EC7004FDFEFF22C860DB2481C8500990
:10093000C39860025006020A209850CAF582E9293D
:100940004B4A7005AB82020A0F75F0007C1A788062
:10095000C3EF9BEE9AED99400DC3EF9BFFEE9AFE1D
:10096000ED99FDE842F0DC23ACF0D0E0FFD0E0FEF2
:10097000D0E0FDAB8220E7101BEB60BAEC2CFCEF63
:1009800033FFEE33FEED33FD0209FBE803F830E7F9
:1009900005C0F075F000EF2FFFEE33FEED33FD40A4
:1009A000B830E7C280AA75F020800E75F01080057F
:1009B00075F0087D007E007F003392D530D503129C
:1009C0000A2EEC334010EF33FFEE33FEED33FDEC37
:1009D00033FCD5F0ED22E5F0247EA2D513CC92E7CE
:1009E000CDCEFF22E9D2E7C933E833F892D5EDD274
:1009F000E7CD33EC33FC5002B2D522EC30E7100FD8
:100A0000BF000C0EBE00080DBD00040BEB6014A26D
:100A1000D5EB13FCED92E7FD2274FFFCFDFEFF22F7
:100A2000E480F8A2D574FF13FC7D80E480EFC3E47A
:100A30009FFFE49EFEE49DFDE49CFC22EB9FF5F00D
:0D0A4000EA9E42F0E99D42F0E89C45F0225C
:0F0AF0001200CB787FE4F6D8FD758120020073E9
:00000001FF
