:020000040000FA
:100000000200887597A5E4F50BF50AF509F508E4F3
:100010007FCCFEFDFCAB0BAA0AA909A808C31200FD
:1000200077501800E50B2401F50BE4350AF50AE4D6
:100030003509F509E43508F50880D4A2AF9200C26D
:10004000AF7597DE7597ADA20092AF221200031232
:1000500000C21200C61200B61200641200A4120000
:10006000AE020097AF885388AF758C07EF5440FEFF
:10007000EF54104E428822EB9FF5F0EA9E42F0E9E1
:100080009D42F0E89C45F0221200CA787FE4F6D841
:10009000FD7581200200BD53F77F75DA4275FB4084
:1000A00075FC4022758E0275890243881022C2DEDB
:1000B00075D904D2DE2275E34075E2012212004CAC
:0B00C00080FE75D4FF2275D50F2222B0
:00000001FF
