:020000040000FA
:100000000200B21200261200C112001F12001512C7
:1000100000C80200CC758E0875892043884022E410
:10002000F5A9220200907597A5E4F50BF50AF509EC
:10003000F508E47FCCFEFDFCAB0BAA0AA909A808D1
:10004000C31200A1501800E50B2401F50BE4350A9A
:10005000F50AE43509F509E43508F50880D4A2AFBE
:100060009200C2AF7597DE7597ADA20092AF2212D3
:100070000003D299208203750D4C308203750D6FF9
:10008000E50CB46F02C294E50CB44CE8D29480E461
:1000900030980385990C309903850D99C298C299BF
:1000A00032EB9FF5F0EA9E42F0E99D42F0E89C4574
:1000B000F0221200D0787FE4F6D8FD75812002008E
:1000C0006F75E34075E101224398102275A89022D4
:0100D000220D
:00000001FF
