:020000040000FA
:10000000020800E5C8540453C8FB75CB3875CA9E76
:1000100043C80442C82212002E12013C12014012B1
:0900200001441200030201482210
:10002B000201117597A5E4F510F50FF50EF50DE42A
:10003B007FCCFEFDFCAB10AA0FA90EA80DC31201BD
:10004B0000501800E5102401F510E4350FF50FE40E
:10005B00350EF50EE4350DF50D80D4A2AF9200C22E
:10006B00AF7597DE7597ADA20092AF227F0212009B
:10007B00BDC3E509940AE5086480948040F3E4F578
:10008B0008F5097F041200BDC3E5099405E5086472
:10009B0080948040F3E4F508F5097F081200BDC396
:1000AB00E509940AE5086480948040F3E4F508F5CB
:1000BB0009226307FFD283E4F50AE50AC3940874A7
:1000CB008094805029AE0AA8067401088002C333BD
:1000DB00D8FCF50BC37407950AFEF8EF088002C332
:1000EB0013D8FC139282D280C280050A80CCC283C3
:1000FB00D283C28322EB9FF5F0EA9E42F0E99D4248
:10010B00F0E89C45F022C0E0C2CF0509E50970027A
:10011B000508D0E032120016C291C292D2841200AE
:10012B007780FB02080000010B00010C00010A079D
:10013B000075A41D2275A5062275E3402275A8A0A3
:01014B002291
:10080000120028787FE4F6D8FD75812002084A029C
:100810000120E493A3F8E493A34003F68001F208D7
:10082000DFF48029E493A3F85407240CC8C333C42D
:10083000540F4420C8834004F456800146F6DFE498
:10084000800B010204081020408090012EE47E01FC
:100850009360BCA3FF543F30E509541FFEE493A30B
:1008600060010ECF54C025E060A840B8E493A3FA1D
:10087000E493A3F8E493A3C8C582C8CAC583CAF0A9
:0F088000A3C8C582C8CAC583CADFE9DEE780BE48
:00000001FF
