:020000040000FA
:10000000020B457597A5E4F517F516F515F514E4FB
:100010007FCCFEFDFCAB17AA16A915A814C3120BC2
:1000200034501800E5172401F517E43516F516E4E9
:100030003515F515E43514F51480D4A2AF9200C23D
:10004000AF7597DE7597ADA20092AF2275E6087581
:10005000A880220201298F178E168D158C14AB17DC
:10006000AA16A915A8147F337E337D537C4012084D
:1000700003C004C005C006C0077F007E407D1C7C15
:1000800046AB17AA16A915A8141208F8D003D00277
:10009000D001D000020A011200DDC2AF851208852E
:1000A0001309D2AFAF09AE081200C08F118E108DA8
:1000B0000F8C0E1200568F0D8E0C8D0B8C0A80DA71
:1000C000AD07AC06E4120AA37B337A337953784048
:1000D0001208F8E4FBFA79807845020A011200035D
:1000E00012013212013912011912013D1200F512EA
:1000F000014102004CE5C8540453C8FB75CBF475AC
:10010000CA0A43C80442C82202080000040A0000C8
:100110000000040E000000000075BB0B75BC0975E3
:10012000B38153E8F843E8C222C2ED85BE1285BD13
:10013000133275F2F775D5082275E3402275D108A0
:0601400022758E10222240
:10080000020B11E86480F8E933E83360110460F00A
:10081000ED33EC337009E8FCE9FDEAFEEBFF22045E
:1008200060DED3EB9FEA9EE99DE8C2E78CF0C2F759
:1008300095F0400CE8CCF8E9CDF9EACEFAEBCFFB25
:10084000120ADC85D0F05804700320D5B3E8047098
:10085000075002B2D5020B1B92D5EC0460F7E4CC32
:10086000C0E0C398F8603B94186008400DD0E0FBEE
:10087000020AF3E4FBFAC9FC8028E830E406E4C984
:10088000FBE4CAFCE830E305E4C9CACBFCE8540742
:100890006010F8C3E913F9EA13FAEB13FBEC13FC4D
:1008A000D8F130F52FC3E49CFCEF9BFFEE9AFEEDF0
:1008B00099FDD0E0FBEF4E4D4C701222DB03020B92
:1008C00018EC2CFCEF33FFEE33FEED33FDED30E79B
:1008D000EB020AF3EF2BFFEE3AFEED39FDD0E0FB21
:1008E00050130BBB0003020B1BED13FDEE13FEEFC9
:1008F00013FFEC13FC020AF3EC4D6011E84970178A
:10090000ED33EC3304600DE4FCFFFEFD22E933E837
:10091000330470F8020B11120ADC58046009E4CCAD
:1009200024815006285009020B1B284003020B1893
:10093000C0E0EB4A7044B98006D0E0FB020B07EF41
:100940004E701CBD8008EBFFEAFEE9FD80EBE98DEF
:10095000F0A4FEE5F00209E1E9CDF9EAFEEBFFEFD4
:1009600089F0A4FCE5F0CE89F0A42EFFE435F0CDAB
:1009700089F0A42DFEE435F08067EF4E7005BD8050
:10098000D780C3EF8BF0A4ACF0EE8BF0A42CFCE48A
:1009900035F0F8EF8AF0A42CE5F038FCE433CB8D89
:1009A000F0A42CFCE5F03BF8EE8AF0A42CFCE5F07A
:1009B00038F8E433CF89F0A42CFCE5F038CF3400CC
:1009C000CE89F0A42FFFE5F03EFEE433C98DF0A4FC
:1009D0002EFEE5F039CD8AF0A42FFFE5F03EFEE4CF
:1009E0003DFD33D0E0FB50070BBB000F020B1BECAF
:1009F0002CFCEF33FFEE33FEED33FD020AF3020B66
:100A00001BEC5D046005E859047003020B11120A27
:100A1000DC580460F6EC4860F2EC7004FDFEFF2246
:100A2000C860DB2481C85009C39860025006020BDD
:100A3000189850CAF582E9294B4A7005AB82020B1F
:100A40000775F0007C1A7880C3EF9BEE9AED994011
:100A50000DC3EF9BFFEE9AFEED99FDE842F0DC231B
:100A6000ACF0D0E0FFD0E0FED0E0FDAB8220E7109C
:100A70001BEB60BAEC2CFCEF33FFEE33FEED33FDE5
:100A8000020AF3E803F830E705C0F075F000EF2F35
:100A9000FFEE33FEED33FD40B830E7C280AA75F0BB
:100AA00020800E75F010800575F0087D007E007FB7
:100AB000003392D530D503120B26EC334010EF33C0
:100AC000FFEE33FEED33FDEC33FCD5F0ED22E5F027
:100AD000247EA2D513CC92E7CDCEFF22E9D2E7C97E
:100AE00033E833F892D5EDD2E7CD33EC33FC500246
:100AF000B2D522EC30E7100FBF000C0EBE00080D7F
:100B0000BD00040BEB6014A2D5EB13FCED92E7FDE6
:100B10002274FFFCFDFEFF22E480F8A2D574FF13CF
:100B2000FC7D80E480EFC3E49FFFE49EFEE49DFD36
:100B3000E49CFC22EB9FF5F0EA9E42F0E99D42F036
:100B4000E89C45F022120145787FE4F6D8FD7581D6
:100B500020020B8F020097E493A3F8E493A34003D1
:100B6000F68001F208DFF48029E493A3F854072407
:100B70000CC8C333C4540F4420C8834004F45680C7
:100B80000146F6DFE4800B0102040810204080904B
:100B90000108E47E019360BCA3FF543F30E5095493
:100BA0001FFEE493A360010ECF54C025E060A8406F
:100BB000B8E493A3FAE493A3F8E493A3C8C582C866
:100BC000CAC583CAF0A3C8C582C8CAC583CADFE93B
:040BD000DEE780BE1E
:00000001FF
