:020000040000FA
:1000000002087C7597A5E4F50BF50AF509F508E4F7
:100010007FCCFEFDFCAB0BAA0AA909A808C31200FD
:1000200056501800E50B2401F50BE4350AF50AE4F7
:100030003509F509E43508F50880D4A2AF9200C26D
:10004000AF7597DE7597ADA20092AF2275F2F77586
:10005000D5082202008EEB9FF5F0EA9E42F0E99D62
:1000600042F0E89C45F02275BB0B75BCC175B381AD
:1000700053E8F843E8C122758E044388102275E6E0
:100080000875A8802212084980FE75E34022C2ED5F
:0200900032221A
:1008490012000312004C12008A120067120077028C
:02085900007E1F
:0F087C00120091787FE4F6D8FD75812002008587
:00000001FF
