:020000040000FA
:100000000200C212002E1200F21200F61200E612D6
:10001000008B12009E1200211200DE1200D102009D
:10002000FA758E027589024388102202007775974F
:10003000A5E4F50BF50AF509F508E47FCCFEFDFC17
:10004000AB0BAA0AA909A808C31200B1501800E511
:100050000B2401F50BE4350AF50AE43509F509E44A
:100060003508F50880D4A2AF9200C2AF7597DE754F
:1000700097ADA20092AF22C0E0C0D0C2CF208106CF
:10008000744025FCF5FCD0D0D0E032AF885388AF67
:10009000758C07EF5440FEEF54104E428822E5C89D
:1000A000540453C8FB75CB0675CAC643C80442C87E
:1000B00022EB9FF5F0EA9E42F0E99D42F0E89C4574
:1000C000F0221200FE787FE4F6D8FD758120020050
:1000D000ED53F77F75DA4275FBC0E4F5FC22C2DE12
:1000E00075D904D2DE2275E34075E20122120003C5
:0F00F00080FE75D4FF2275D50F2275A8A022229D
:00000001FF
