:020000040000FA
:100000000200B1E5C8540453C8FB75CB8875CA5FBC
:1000100043C80442C82212002E1200C51200C912A1
:0900200000031200CD0200D12200
:10002B000200C07597A5E4F50BF50AF509F508E490
:10003B007FCCFEFDFCAB0BAA0AA909A808C31200D2
:10004B00A0501800E50B2401F50BE4350AF50AE482
:10005B003509F509E43508F50880D4A2AF9200C242
:10006B00AF7597DE7597ADA20092AF2212001620E6
:10007B0097FDE4F50CC3E50C94067480948040F571
:10008B00B2903097FDE4F50CC3E50C9406748094A4
:10009B008050DC80F3EB9FF5F0EA9E42F0E99D4245
:1000AB00F0E89C45F022120028787FE4F6D8FD7525
:1000BB008120020077C2CF050C3275A5812275E332
:0A00CB004022758E102275A8A022B5
:00000001FF
