:020000040000FA
:100000000208007597A5E4F50BF50AF509F508E473
:100010007FCCFEFDFCAB0BAA0AA909A808C31200FD
:100020008F501800E50B2401F50BE4350AF50AE4BE
:100030003509F509E43508F50880D4A2AF9200C26D
:10004000AF7597DE7597ADA20092AF226307FFD21E
:1000500083E4F50CE50CC39408748094805029AEB9
:100060000CA8067401088002C333D8FCF50DC374D4
:1000700007950CFEF8EF088002C313D8FC13928298
:10008000D280C280050C80CCC283D283C28322EB93
:100090009FF5F0EA9E42F0E99D42F0E89C45F0228F
:1000A0001200B0C291C292D2847F0112004C80FE35
:1000B0001200031200CA1200CE0200C6010D000198
:1000C0000E00010C070075E3402275A41D2275A5E2
:0300D000062222E3
:100800001200D2787FE4F6D8FD75812002084A02F2
:1008100000A0E493A3F8E493A34003F68001F20858
:10082000DFF48029E493A3F85407240CC8C333C42D
:10083000540F4420C8834004F456800146F6DFE498
:10084000800B01020408102040809000BCE47E016F
:100850009360BCA3FF543F30E509541FFEE493A30B
:1008600060010ECF54C025E060A840B8E493A3FA1D
:10087000E493A3F8E493A3C8C582C8CAC583CAF0A9
:0F088000A3C8C582C8CAC583CADFE9DEE780BE48
:00000001FF
