:020000040000FA
:10000000020003120141787FE4F6D8FD75812002D9
:10001000004D0200DBE493A3F8E493A34003F680D1
:1000200001F208DFF48029E493A3F85407240CC8F4
:10003000C333C4540F4420C8834004F4568001469F
:10004000F6DFE4800B010204081020408090011BC1
:10005000E47E019360BCA3FF543F30E509541FFECA
:10006000E493A360010ECF54C025E060A840B8E43B
:1000700093A3FAE493A3F8E493A3C8C582C8CAC5BE
:1000800083CAF0A3C8C582C8CAC583CADFE9DEE750
:1000900080BE7597A5E4F515F514F513F512E47F08
:1000A000CCFEFDFCAB15AA14A913A812C31200EDD7
:1000B000501800E5152401F515E43514F514E43560
:1000C00013F513E43512F51280D4A2AF9200C2AF3B
:1000D0007597DE7597ADA20092AF221200FEC29115
:1000E000C292C284D2FFAF0812010D80FEEB9FF5D1
:1000F000F0EA9E42F0E99D42F0E89C45F0221200B1
:100100009212013912013D120132020128EFF4F579
:10011000A330FFFDC2FFD283C283220A083F065BE1
:100120004F666D7D077F6F0043A17053F8F343F86E
:10013000012275E34075E1022275A41D2275A50612
:02014000222279
:00000001FF
