:020000040000FA
:100000000208007597A5E4F516F515F514F513E447
:100010007FCCFEFDFCAB16AA15A914A813C31200D1
:10002000B3501800E5162401F516E43515F515E46E
:100030003514F514E43513F51380D4A2AF9200C241
:10004000AF7597DE7597ADA20092AF226307FFD21E
:1000500083E4F508E508C3940874809480501AC3BB
:1000600074079508FEF8EF088002C313D8FC1392BA
:1000700082D280C280050880DBC283D283C2832201
:100080001200D4850916E4FBFDFF1200A512009FA3
:10009000850916E41B0DFF1200A512009F80E48560
:1000A00009160BE4FF1200E3AF1612004C308DFD71
:1000B000C28D22EB9FF5F0EA9E42F0E99D42F0E806
:1000C0009C45F0220108000A093F065B4F666D7DE2
:1000D000077F6F001200031200F71200FB1200FFEF
:1000E0000200F0EF139291ED139292EB139284229F
:1000F0007589024388102275A41D2275A5062275F4
:04010000E340222294
:10080000120103787FE4F6D8FD75812002084A02C0
:100810000080E493A3F8E493A34003F68001F20878
:10082000DFF48029E493A3F85407240CC8C333C42D
:10083000540F4420C8834004F456800146F6DFE498
:10084000800B01020408102040809000C4E47E0167
:100850009360BCA3FF543F30E509541FFEE493A30B
:1008600060010ECF54C025E060A840B8E493A3FA1D
:10087000E493A3F8E493A3C8C582C8CAC583CAF0A9
:0F088000A3C8C582C8CAC583CADFE9DEE780BE48
:00000001FF
