:020000040000FA
:1000000002000EC28DB294050F32220200031200CC
:100010000A787FE4F6D8FD75812002005802009D21
:10002000E493A3F8E493A34003F68001F208DFF41D
:100030008029E493A3F85407240CC8C333C4540F95
:100040004420C8834004F456800146F6DFE4800B68
:10005000010204081020408090019EE47E0193601C
:10006000BCA3FF543F30E509541FFEE493A3600195
:100070000ECF54C025E060A840B8E493A3FAE493FF
:10008000A3F8E493A3C8C582C8CAC583CAF0A3C8AD
:10009000C582C8CAC583CADFE9DEE780BE75080528
:1000A000120162208225E4F50FE50FD3950840F98F
:1000B000E50DB40205E4F50D8002050DAF0D12014A
:1000C0002F3082FDE50FC3950840F9E50D14600C53
:1000D00014600E240270CC75080580C775080A806C
:1000E000C275080580BD7597A5E4F50CF50BF50AFA
:1000F000F509E47FCCFEFDFCAB0CAA0BA90AA8090C
:10010000C312018D501800E50C2401F50CE4350BE9
:10011000F50BE4350AF50AE43509F50980D4A2AFF8
:100120009200C2AF7597DE7597ADA20092AF22EF35
:1001300014602714602824027027E4F50EAF0EEF38
:100140003395E0FEC3EF9402EE6480948050040582
:100150000E80EA758C39E4F50E22758C9C22758C24
:10016000EC221200E61201BE1201C21201B212010B
:10017000B612017A1201A80201BAAF885388AF758E
:100180008C39EF5440FEEF54104E428822EB9FF51D
:10019000F0EA9E42F0E99D42F0E89C45F022010E13
:1001A00000010D00010F0000758E02758902438861
:1001B000102275E3402275A9702275A8822275A4C9
:0601C000042275A51022C7
:00000001FF
