:020000040000FA
:1000000002000EC28DB290050C32220200031200D3
:100010000A787FE4F6D8FD7581200200580200E6D8
:10002000E493A3F8E493A34003F68001F208DFF41D
:100030008029E493A3F85407240CC8C333C4540F95
:100040004420C8834004F456800146F6DFE4800B68
:10005000010204081020408090016CE47E0193604E
:10006000BCA3FF543F30E509541FFEE493A3600195
:100070000ECF54C025E060A840B8E493A3FAE493FF
:10008000A3F8E493A3C8C582C8CAC583CAF0A3C8AD
:10009000C582C8CAC583CADFE9DEE780BE7597A5F9
:1000A000E4F50BF50AF509F508E47FCCFEFDFCABA1
:1000B0000BAA0AA909A808C3120141501800E50BB0
:1000C0002401F50BE4350AF50AE43509F509E435B0
:1000D00008F50880D4A2AF9200C2AF7597DE75977D
:1000E000ADA20092AF22120119209711E50DB402C2
:1000F00005E4F50D8002050DAF0D120102E4F50CCB
:1001000080E7EF14600B14600C2402700B758C7B7D
:1001100022758C9C22758CEC2212009D12016812B3
:10012000015C12016012012E120152020164AF88BB
:100130005388AF758C7BEF5440FEEF54104E4288CD
:1001400022EB9FF5F0EA9E42F0E99D42F0E89C45E3
:10015000F022758E027589024388102275A58122CE
:1001600075E3402275A8822275A97022010D000056
:00000001FF
