:020000040000FA
:10000000020003120208787FE4F6D8FD7581200211
:10001000004D0201E3E493A3F8E493A34003F680C8
:1000200001F208DFF48029E493A3F85407240CC8F4
:10003000C333C4540F4420C8834004F4568001469F
:10004000F6DFE4800B010204081020408090019C40
:10005000E47E019360BCA3FF543F30E509541FFECA
:10006000E493A360010ECF54C025E060A840B8E43B
:1000700093A3FAE493A3F8E493A3C8C582C8CAC5BE
:1000800083CAF0A3C8C582C8CAC583CADFE9DEE750
:1000900080BEBC000BBE0029EF8DF084FFADF022C6
:1000A000E4CCF875F008EF2FFFEE33FEEC33FCEEF6
:1000B0009DEC984005FCEE9DFE0FD5F0E9E4CEFDE9
:1000C00022EDF8F5F0EE8420D21CFEADF075F008BC
:1000D000EF2FFFED33FD4007985006D5F0F222C315
:1000E00098FD0FD5F0EA22EB9FF5F0EA9E42F0E989
:1000F0009D42F0E89C45F022AB07AA06E4F514AF58
:10010000147E00C3EF9404748094805045C374033C
:100110009FFFE49EEF139291C374039514C31313CE
:100120009292C2847C007D0AAF03AE02120092AFAD
:100130000574082FF8E6FF1201D530CFFDC2CF7C41
:10014000007D0AAF03AE02120092AA06AB070514A7
:1001500080AD227597A5E4F518F517F516F515E4A9
:100160007FCCFEFDFCAB18AA17A916A815C3120078
:10017000E7501800E5182401F518E43517F517E4E1
:100180003516F516E43515F51580D4A2AF9200C2E8
:10019000AF7597DE7597ADA20092AF22021204D21E
:1001A0000114000A083F065B4F666D7D077F6F00F4
:1001B000E5C8540453C8FB75CBFE75CAEC43C804AC
:1001C00042C8221201531202001202041201F91253
:1001D00001B00201EFEFF4F5A330FFFDC2FFD283BF
:1001E000C283221201C3AF13AE121200F880F7438C
:1001F000A17053F8F343F8012275E34075E1022240
:0902000075A41D2275A506222239
:00000001FF
