:020000040000FA
:1000000002009D12007A750C4CD2992082FD850C5D
:0A001000993099FDC29980F3322265
:10001B000200187597A5E4F50BF50AF509F508E448
:10002B007FCCFEFDFCAB0BAA0AA909A808C31200E2
:10003B008C501800E50B2401F50BE4350AF50AE4A6
:10004B003509F509E43508F50880D4A2AF9200C252
:10005B00AF7597DE7597ADA20092AF22AF8853882C
:10006B00AF758D96EF5440FEEF54104E428822121E
:10007B00001E1200BD1200B61200C1120067020072
:10008B00ACEB9FF5F0EA9E42F0E99D42F0E89C450F
:10009B00F022120019787FE4F6D8FD75812002005A
:1000AB0003758E087589204388402275E34075E1FE
:0A00BB00012275A41022E4F5A92229
:00000001FF
