:020000040000FA
:100000000208AE7597A5E4F50BF50AF509F508E4C5
:100010007FCCFEFDFCAB0BAA0AA909A808C31200FD
:1000200069501800E50B2401F50BE4350AF50AE4E4
:100030003509F509E43508F50880D4A2AF9200C26D
:10004000AF7597DE7597ADA20092AF2275F27F75FE
:10005000D58F220200B5E5C8540453C8FB75CBFE0A
:1000600075CA0243C80442C822EB9FF5F0EA9E42DB
:10007000F0E99D42F0E89C45F022AF885388AFEF4D
:100080005440FEEF54104E42882275BB0F75BCFDE4
:1000900075B32053E8F843E8822253F77F75DA42BC
:1000A00075FBC0E4F5FC2275E34075E2012275E6BC
:1000B0000875A88022C2ED85BEFC3212084980FE78
:0E00C000C2DED2DE2275D4FF2275D1082222C4
:100849001200031200C512004C1200A712008A12EE
:1008590000C912007A1200561200C012009A020052
:01086900AEE0
:0F08AE001200CD787FE4F6D8FD7581200200BBE3
:00000001FF
