:020000040000FA
:100000000200BB7597A5E4F50BF50AF509F508E4C0
:100010007FCCFEFDFCAB0BAA0AA909A808C31200FD
:100020008A501800E50B2401F50BE4350AF50AE4C3
:100030003509F509E43508F50880D4A2AF9200C26D
:10004000AF7597DE7597ADA20092AF2275F27F75FE
:10005000D58F220200E51200031200F512004C12A7
:1000600000D71200AB1200F912009B1200771200A9
:10007000F01200CA0200DEE5C8540453C8FB75CB79
:10008000FE75CA0243C80442C822EB9FF5F0EA9EFF
:1000900042F0E99D42F0E89C45F022AF885388AFDA
:1000A000EF5440FEEF54104E42882275BB0F75BCD2
:1000B000FD75B32053E8F843E802221200FD787F73
:1000C000E4F6D8FD7581200200EB53F77F75DA4224
:1000D00075FBC0E4F5FC2275E34075E2012275E68C
:1000E0000875A88022C2ED85BEFC3212005680FE43
:0E00F000C2DED2DE2275D4FF2275D108222294
:00000001FF
